:1000000052C2000081C200007FC200007DC2000019
:100010007BC2000079C2000077C2000075C20000F8
:1000200073C2000071C200006FC200006DC2000008
:100030006BC2000069C2000067C2000065C2000018
:1000400063C2000061C200005FC200005DC2000028
:100050005BC2000059C2000057C200000C94660A3F
:1000600053C200000C9488090C945F094DC2000033
:100070004BC2000049C2000047C2000045C2000058
:1000800043C2000041C200003FC200003DC2000068
:100090000C9436090C940D0937C200000C94B70A71
:1000A00033C2000031C200002FC200002DC2000088
:1000B0002BC2000029C2000027C2000025C2000098
:1000C00023C2000021C200001FC200001DC20000A8
:1000D0001BC2000019C2000017C2000015C20000B8
:1000E00013C20000E009E309D209D609DA091A0AA5
:1000F000E709EB09F109F509F909FF09030A070AFC
:100100001A0A0D0A110A150A50415F4D4158005054
:10011000415F484947480050415F4C4F57005041AC
:100120005F4D494E00313620626974730038206299
:100130006974730044697361626C6564006E524651
:1001400032344C30312B006E524632344C30310058
:100150003235304B42505300324D42505300314DF6
:10016000425053005354415455530909203D203007
:1001700078253032782052585F44523D25782054FB
:10018000585F44533D2578204D41585F52543D25DA
:10019000782052585F505F4E4F3D25782054585F6D
:1001A00046554C4C3D25780D0A00504120506F7744
:1001B000657209203D2025530D0A001E0117010F0D
:1001C000010801435243204C656E67746809203D65
:1001D0002025530D0A0034012D0125014D6F646562
:1001E0006C0909203D2025530D0A0047013D0144BB
:1001F000617461205261746509203D2025530D0A08
:10020000005E015801500144594E50442F4645416B
:100210005455524500434F4E4649470052465F539E
:10022000455455500052465F434800454E5F525872
:100230004144445200454E5F41410052585F50577F
:100240005F50302D360054585F414444520052589C
:100250005F414444525F50322D350052585F414453
:1002600044525F50302D310000002200250028004C
:100270002B002E00310034000201000005010801AE
:100280000B0100002100240027002A002D0030006F
:10029000330001010000040107010A0105050505FD
:1002A000070508080808020202020A0A08080404EE
:1002B000040401010101010101010303030303031C
:1002C0000303040707070C0C0C0C0C0C0C0C0202AB
:1002D000020206060606060606060B0B0B0B0B0BA8
:1002E0000B0B010210202008081020401020408035
:1002F00002010201080402010102040810204080EA
:100300008040201008040201800402018040201077
:1003100008040201080402010102040810204080C0
:1003200001020408102040800D0A002530327800B8
:10033000203078002553092563203D000D0A002058
:10034000307825303278002553092563203D0000A0
:1003500001020304051112131415160A0B0C0D0EDD
:100360000F00000A0B02090C0D0E08070304010020
:10037000000000000000000000000000000000007D
:10038000000000000000000000000000001211103A
:10039000000000000000000000000000000000005D
:1003A0000000000000000000407A10F35A00A07224
:1003B0004E18090010A5D4E80000E87648170000A0
:1003C000E40B54020000CA9A3B000000E1F505006E
:1003D0000080969800000040420F000000A08601B7
:1003E000000000102700000000E803000000006487
:1003F00000000000000A00000000000100000000F2
:10040000002C76D888DC674F0823DFC1DFAE59E1C6
:10041000B1B796E5E3E453C63AE651997696E8E635
:10042000C28426EB898C9B62ED407C6FFCEFBC9C08
:100430009F40F2BAA56FA5F490055A2AF75C936B1A
:100440006CF9676DC11BFCE0E40D47FEF520E6B5D5
:1004500000D0ED902E0300943577050080841E08AF
:100460000000204E0A000000C80C333333330F98CD
:100470006E12831141EF8D2114893BE65516CFFE94
:10048000E6DB18D1844B381BF77C1D901DA4BBE420
:1004900024203284725E228100C9F124ECA1E53D62
:1004A00027003315461611241FBECFEFD1E2DEBF61
:1004B000CDBF00E00CBF12E0A0E0B2E0E8E4F1E460
:1004C00000E00BBF02C007900D92A435B107D9F729
:1004D00025E0A4E5B2E001C01D92A936B207E1F71C
:1004E00012E0C2E5D2E000E006C021970109802FAA
:1004F000FE010E944E16C135D10780E00807A9F71A
:100500000E94360D0C9492207BCD382F2091EC0266
:1005100090910A05213208F049C08091C9028111E9
:10052000FCCF42E04093C9023093C8023FEF3093C2
:10053000C7021092C6022093C502ACECB2E045EAB5
:1005400052E0FA013E2F341B321718F43D913193DB
:10055000F9CF1092A4022091A402990F922B9093AC
:10056000A4029091A302913061F41092A3029091A1
:10057000A4029093BB009091BC0093FDF8CF95EC42
:1005800001C095EE9093BC009091C9029230E1F3C6
:100590009091C7029F3F79F08091C702803241F06D
:1005A0008091C702803331F084E005C081E003C050
:1005B00082E001C083E01092CB021092EC02109214
:1005C000CA0208959091C9029111FCCF91E09093D5
:1005D000C9029093C8022FEF2093C7021092C6025F
:1005E000260F2093C5029093A4029091A402880F35
:1005F000892B8093A4028091A302813061F4109230
:10060000A3028091A4028093BB008091BC0083FD73
:10061000F8CF85EC01C085EE8093BC008091C902C3
:100620008130E1F38091C602861710F46091C60212
:10063000A5EAB2E023E832E0F9018E2F821B86178B
:1006400018F48D918193F9CF862F08959CB59F7DE5
:100650009CBD9CB5937F9CBD9CB59C7F9CBD9DB56E
:1006600091609DBD682F809100057BC6EF92FF923F
:100670000F931F93CF93DF931F921F92CDB7DEB7D7
:10068000082F162F80E049837A83E0DF802F8F7157
:10069000806266D7082FE12E7A81F72E4981140FE8
:1006A0001E1529F0F70181917F015AD7F9CF81E01A
:1006B000CDDF802F0F900F90DF91CF911F910F9181
:1006C000FF90EF9008951F93CF93DF931F92CDB7C4
:1006D000DEB7182F80E06983B9DF812F8F718062C8
:1006E0003FD7182F6981862F3BD781E0AFDF812F5D
:1006F0000F90DF91CF911F9108950F931F93CF9388
:10070000DF93CDB7DEB728970FB6F894DEBF0FBEE4
:10071000CDBF29833A834B835C836D837E838F8334
:1007200098870FEF14E0F8014285BE016F5F7F4F9D
:100730008AE09CDFF8014285BE016F5F7F4F80E158
:1007400095DFF801638181E1BEDF28960FB6F8944A
:10075000DEBF0FBECDBFDF91CF911F910F910895E6
:10076000CF93C82F80E072DF8C2F8F71F9D68FEF77
:10077000F7D6C82F81E06ADF8C2FCF910895FF92C2
:100780000F931F93CF93DF93CDB7DEB728970FB6A4
:10079000F894DEBF0FBECDBFF82E09831A832B83DA
:1007A0003C834D835E836F83788781110BC04091BA
:1007B000090550E0BE016F5F7F4F84E095E00E9425
:1007C000511806C086E08F1568F181E0F81208C064
:1007D000EF2DF0E0E55AFC4F84914091090506C0E9
:1007E000EF2DF0E0E55AFC4F849141E0BE016F5FD0
:1007F0007F4F3CDF0F2D10E0F801EB5AFC4F849146
:100800006091020560DF82E0ABDFF801E15BFC4F45
:10081000E49161E070E001C0660FEA95EAF7682BA9
:1008200082E051DF28960FB6F894DEBF0FBECDBF31
:10083000DF91CF911F910F91FF900895CF93C82F13
:1008400080E004DF8C2F8CD6C82F81E0FFDE8C2F58
:10085000CF91089581EEF2CF60E08091FF0481D5C1
:10086000F9DF80E07DDF682F6E7F80E02CDF83E0A2
:1008700092E00197F1F708950F931F93CF93DF93C1
:1008800041155105E9F061157105D1F0FC01248194
:1008900035812115310519F4FB01108211C0EA01DF
:1008A00021972C173D0708F4E9018B01FC016081B9
:1008B0007181AE01C8010E946F18C00FD11F18824C
:1008C000DF91CF911F910F910895EF92FF920F93B7
:1008D0001F93CF93DF931F92CDB7DEB7182F0091F0
:1008E000030580E09983B2DE80EA3AD6E12E998151
:1008F000F92E10E2115029F0F70181917F0130D6D5
:10090000F9CF011102C080E02BD681E09FDE61E0CB
:100910008091FF0426D58FEF91DF8073E1F360E0D3
:100920008091FF041ED560E787E0CDDE84FF03C021
:1009300091DF80E001C081E00F90DF91CF911F91A6
:100940000F91FF90EF900895CF93DF93BC018AE859
:1009500093E00E94210DEC0166E272E08AE893E0E8
:100960000E94210D8C0F9D1FDF91CF91089580E093
:10097000F7DE81FD0BC080E0F3DE682F626080E06F
:10098000A2DE65E070E080E090E068C50895EFDFEA
:1009900080E0E6DE682F616080E095DE60E787E05A
:1009A00092DE80910405882331F04091090564E0CE
:1009B00075E08AE05BDE4EDF61E08091FF04D1C428
:1009C000FC01A089B18982E08C93A485B5851C9235
:1009D000A685B78580E18C93108EA489B58986E0C1
:1009E0008C93A289B3898C9180618C93A289B389FD
:1009F0008C9188608C93A289B3898C9180688C9348
:100A00000288F389E02D80818F7D80830895FF9295
:100A10000F931F93CF93DF93182F092FC62FD42F37
:100A20000E949D18089710F080E001C089E01F9295
:100A30008F930F931F9387E493E09F938F930E946C
:100A40001D19DC0F0F900F900F900F900F900F90CB
:100A50000FE313E0CD1789F0FF24F394FC0E8C2FE5
:100A60007FDE1F928F931F930F930E941D190F908B
:100A70000F900F900F90CF2DEDCF8CE393E09F93CD
:100A80008F930E941D190F900F90DF91CF911F91AE
:100A90000F91FF9008952F923F924F925F926F9225
:100AA0007F928F929F92AF92BF92CF92DF92EF92FE
:100AB000FF920F931F93CF93DF931F92CDB7DEB7B3
:100AC000182F092F562E442E6DB67EB60E949D1803
:100AD000089710F080E001C089E01F928F930F9378
:100AE0001F9384E393E09F938F930E941D19450CFD
:100AF00049820F900F900F900F900F900F9080E30E
:100B0000C82E83E0D82E9BE2A92E93E0B92EF9815E
:100B10005F1609F448C08DB69EB620900905022DD7
:100B200010E08DB79EB7801B910B0FB6F8949EBF57
:100B30000FBE8DBFEDB7FEB731967F0133243394DE
:100B4000350C80E083DD852D8F710AD527012E0CB1
:100B5000241431F08FEF04D5F20181932F01F8CFE7
:100B600081E074DDDF92CF920E941D190E0D1F1DD2
:100B70000F900F90015011090E151F0568F0F80134
:100B800080811F928F93BF92AF920E941D190F9088
:100B90000F900F900F90EECF0FB6F8949EBE0FBE41
:100BA0008DBE532CB4CF88E293E09F938F930E9425
:100BB0001D190F900F900FB6F8947EBE0FBE6DBE3C
:100BC0000F90DF91CF911F910F91FF90EF90DF90E9
:100BD000CF90BF90AF909F908F907F906F905F90DD
:100BE0004F903F902F90089580E0BADD682F6C60A1
:100BF00080E069CD0F931F93CF938C0186E0B0DD29
:100C0000C82FC77D0230110511F4C06204C0013045
:100C1000110509F4C8606C2F86E055DD86E0A0DD83
:100C200091E08C1390E0892FCF911F910F9108953F
:100C300090E0FC01EE51FD4F2491FC01E456FD4F84
:100C40008491882399F090E0880F991FFC01EE575A
:100C5000FD4FA591B491FC01E859FD4F8591949108
:100C60008FB7F894EC91E22BEC938FBF0895CF935C
:100C7000DF931F92CDB7DEB791E09093CA028093C5
:100C80000A051092CB021092EC0287E294E04983AD
:100C900033D24981642F87E294E02ED281E00F9015
:100CA000DF91CF9132CCDF92EF92FF920F931F939F
:100CB000CF93DF931F92CDB7DEB7F82E890181E085
:100CC0008093CA02F0920A051092CB021092EC02B5
:100CD00087E294E0498310D280E017DC4981642FD9
:100CE000413208F060E28F2D6DDC10928202809319
:100CF000810280E03091810290918202391769F07F
:100D0000DD24D394D80E7801E80EF11C87E294E03C
:100D1000A8D1F70180838D2DEDCF0F90DF91CF917A
:100D20001F910F91FF90EF90DF900895CF93C82F00
:100D300081E08093CA02C0930A051092CB02109200
:100D4000EC0287E294E0D8D180E0DFDB61E08C2F19
:100D500039DC109282028093810287E294E081D193
:100D6000CF91089524E0833F920779F0FC016081E0
:100D700071816115710531F04481558183EF94E0F3
:100D8000B9D503C083EF94E0A3D583EF94E0089531
:100D9000CF93DF93EC0141E050E060E472E06BD56B
:100DA000811102C0CE0194D5CE01DF91CF9108957B
:100DB000CF93DF93EC01FB01448155816081718108
:100DC0005AD5811102C0CE0183D5CE01DF91CF91DA
:100DD0000895FC01A089B1898C91A689B78982FD0B
:100DE0000FC09C91818D8F5F8F73228D821749F088
:100DF000218DDF01A20FB11D5D969C93818F089517
:100E00008C910895FC01918D828D981761F0828DEF
:100E1000DF01A80FB11D5D968C91928D9F5F9F732E
:100E2000928F90E008958FEF9FEF0895FC01918DD0
:100E3000828D981731F0828DE80FF11D858D90E03D
:100E400008958FEF9FEF0895FC01918D228D892FDA
:100E500090E0805C9F4F821B91098F7399270895C2
:100E60008DEE92E0F1DF21E0892B09F420E0822F62
:100E700008958AE893E0E8DF21E0892B09F420E077
:100E8000822F0895FC01848DDF01A80FB11DA35AA4
:100E9000BF4F2C91848D90E001968F739927848F9A
:100EA000A689B7892C93A089B1898C9180648C9391
:100EB000938D848D981306C00288F389E02D80817C
:100EC0008F7D80830895EF92FF920F931F93CF93AE
:100ED000DF93EC0181E0888F9B8D8C8D981305C08A
:100EE000E889F989808185FD23C0F62E0B8D10E0FD
:100EF0000F5F1F4F0F731127E02E8C8DE8120BC070
:100F00000FB607FCFACFE889F989808185FFF5CF14
:100F1000CE01B8DFF2CF8B8DFE01E80FF11DE35A51
:100F2000FF4FF0820B8FEA89FB898081806207C0C6
:100F3000EE89FF896083E889F989808180648083F4
:100F400081E090E0DF91CF911F910F91FF90EF90A2
:100F50000895CF93DF93EC01888D8823C1F0EA894F
:100F6000FB89808185FD05C0A889B9898C9186FDA2
:100F70000EC00FB607FCF5CF808185FFF2CFA889A0
:100F8000B9898C9185FFEDCFCE017CDFE8CFDF9171
:100F9000CF9108953FB7F89480915B0590915C05DF
:100FA000A0915D05B0915E0526B5A89B05C02F3FB9
:100FB00019F00196A11DB11D3FBFBA2FA92F982F7F
:100FC0008827820F911DA11DB11DBC01CD0142E0FA
:100FD000660F771F881F991F4A95D1F7089585EDF1
:100FE0008093BC008091BC0084FDFCCF1092C902AC
:100FF000089540913505262F30E0240F311D213210
:101000003105DCF42091C9022430C9F4FC0180E0F0
:1010100090E0861758F4309135052191DC01AD5EE2
:10102000BA4FA30FB11D2C930196F3CF80913505D4
:10103000680F6093350580E0089581E0089582E0AF
:1010400008950895E091820280918102E81730F4BA
:10105000F0E0ED57FD4F808190E008958FEF9FEF16
:1010600008959091820280918102981750F4E92F9F
:10107000F0E0ED57FD4F208130E09F5F90938202BA
:1010800002C02FEF3FEFC90108958091810290E0E7
:1010900020918202821B91090895CF92DF92EF92F4
:1010A000FF920F931F93CF93DF937C01262F972FEF
:1010B0008A018091CA02882391F0C62FD72F6E0132
:1010C000C40ED51ECC15DD0569F06991D701ED91EF
:1010D000FC910190F081E02DC7011995F3CF642FA9
:1010E000822F87DFC801DF91CF911F910F91FF9071
:1010F000EF90DF90CF900895CF93DF931F92CDB7FD
:10110000DEB769832091CA022223D1F02091EC023C
:10111000203240F021E030E0FC013383228380E084
:1011200090E014C08091CB02E82FF0E0E453FD4F33
:10113000998190838F5F8093CB028093EC0204C0EF
:1011400061E0CE01019655DF81E090E00F90DF91E4
:10115000CF910895CF93C82F682F8AE893E0B3DE2C
:101160008C2FCC0F990BCF9108950E944C180F93A0
:101170001F93CF93DF931F921F92CDB7DEB701E08D
:101180008DEE92E061DE892B99F08DEE92E03ADEF1
:10119000182F89831A8241E050E0BE016F5F7F4FB4
:1011A00089EF94E068D31A3059F700935802E8CFDA
:1011B0000F900F90DF91CF911F910F91089580E0D4
:1011C00090E0892B19F055DE81111CC049DE811198
:1011D0001CC080E090E0892B41F080E090E0892BFA
:1011E00021F00E940000811112C080E090E0892B64
:1011F00099F080E090E0892B79F00E940000811145
:1012000009C008950E940000E1CFB1DFE2CF0E9443
:101210000000EBCF0C94000008951F920F920FB6C0
:101220000F9211240BB60F922F933F934F935F931E
:101230006F937F938F939F93AF93BF93EF93FF939E
:101240008DEE92E01FDEFF91EF91BF91AF919F91E4
:101250008F917F916F915F914F913F912F910F905F
:101260000BBE0F900FBE0F901F9018951F920F92FC
:101270000FB60F9211240BB60F922F933F934F93FB
:101280005F936F937F938F939F93AF93BF93EF93EE
:10129000FF938DEE92E09DDDFF91EF91BF91AF91B5
:1012A0009F918F917F916F915F914F913F912F917E
:1012B0000F900BBE0F900FBE0F901F9018951F92AE
:1012C0000F920FB60F9211240BB60F922F933F93EC
:1012D0004F935F936F937F938F939F93AF93BF933E
:1012E000EF93FF938AE893E0CDDDFF91EF91BF91FB
:1012F000AF919F918F917F916F915F914F913F91AE
:101300002F910F900BBE0F900FBE0F901F9018954E
:101310001F920F920FB60F9211240BB60F922F93BC
:101320003F934F935F936F937F938F939F93AF936D
:10133000BF93EF93FF938AE893E04BDDFF91EF912A
:10134000BF91AF919F918F917F916F915F914F91DD
:101350003F912F910F900BBE0F900FBE0F901F90DB
:101360001895362F90E0FC01EF59FC4F4491FC0199
:10137000EE51FD4F2491FC01E456FD4F94919923C9
:1013800009F46BC0442309F455C050E0FA013197C9
:10139000E231F10508F04EC08827EE58FF4F8F4F1D
:1013A0000C944E16809180008F7707C0809180004A
:1013B0008F7D03C080918000877F809380003AC03A
:1013C00084B58F7702C084B58F7D84BD33C0809192
:1013D000B0008F7703C08091B0008F7D8093B00004
:1013E00029C0809190008F7707C0809190008F7DF9
:1013F00003C080919000877F809390001BC08091F4
:10140000A0008F7707C08091A0008F7D03C08091DE
:10141000A000877F8093A0000DC0809120018F776E
:1014200007C0809120018F7D03C080912001877FBC
:1014300080932001E92FF0E0EE0FFF1FE859FD4FE8
:10144000A591B4918FB7F894EC91311103C0209518
:101450002E2301C02E2B2C938FBF08958F929F9225
:10146000AF92BF92CF92DF92EF92FF926B017C011D
:1014700091DD4B015C01C114D104E104F104E9F0F8
:1014800089DDDC01CB0188199909AA09BB09883ECD
:101490009340A105B10578F321E0C21AD108E10813
:1014A000F10888EE880E83E0981EA11CB11CC114BF
:1014B000D104E104F10421F7DECFFF90EF90DF903B
:1014C000CF90BF90AF909F908F9008951F920F92F2
:1014D0000FB60F9211242F933F938F939F93AF9347
:1014E000BF938091540290915502A0915602B09101
:1014F000570230915A0523E0230F2D3720F401962F
:10150000A11DB11D05C026E8230F0296A11DB11D26
:1015100020935A058093540290935502A09356024B
:10152000B093570280915B0590915C05A0915D0599
:10153000B0915E050196A11DB11D80935B0590934E
:101540005C05A0935D05B0935E05BF91AF919F913F
:101550008F913F912F910F900FBE0F901F90189574
:101560008EBD00000DB407FEFDCF8EB508951F920D
:101570000F920FB60F9211240BB60F922F933F9339
:101580004F935F936F937F938F939F93AF93BF938B
:10159000EF93FF938091B900887F803609F49CC057
:1015A00068F5883209F45BC090F4803109F454C0C6
:1015B00038F4882309F4F6C0883009F44DC0F5C02A
:1015C000883109F44CC0803209F45DC0EEC080342B
:1015D00009F468C048F4803309F455C0883309F031
:1015E000E4C08093C702D8C0803509F44FC0883565
:1015F00009F45DC0883409F0D8C0D6C0883909F430
:10160000C7C0A8F4883709F467C038F4883609F4ED
:1016100063C0803709F460C0C8C0883809F4B8C016
:10162000803909F45FC0803809F0BFC05BC0803BDF
:1016300009F486C038F4803A09F466C0883A09F49F
:101640007FC0B3C0803C09F4A7C0883C09F4A4C0A3
:10165000883B09F48AC0A9C08091A40210C090916F
:10166000C6028091C502981770F5E091C60281E02C
:101670008E0F8093C602F0E0EB55FD4F8081809382
:10168000BB0085EC86C08093C7028EC0E091C60285
:1016900081E08E0F8093C6028091BB00F0E0EB5595
:1016A000FD4F80839091C6028091C5026EC0E0918B
:1016B000C60281E08E0F8093C6028091BB00F0E0ED
:1016C000EB55FD4F80838091C80281116DC081E090
:1016D0008093A30284EA61C083E08093C9021092E0
:1016E0005905CFCF80915905803208F051C0E09163
:1016F000590581E08E0F809359058091BB00F0E081
:10170000E75CFA4F8083BDCF85EC8093BC001092DC
:10171000C90280915905803230F4E0915905F0E01A
:10172000E75CFA4F10826091590570E0E09137054F
:10173000F091380589E395E019951092590535C067
:1017400084E08093C9021092360510923505E0912D
:101750003305F0913405199580913505811105C047
:1017600081E08093350510921305E091360581E004
:101770008E0F80933605F0E0ED5EFA4F8081809306
:10178000BB009091360580913505981708F479CF04
:1017900085E88093BC0009C085EC8093BC00109262
:1017A000C90203C01092C7021ADCFF91EF91BF91EA
:1017B000AF919F918F917F916F915F914F913F91E9
:1017C0002F910F900BBE0F900FBE0F901F9018958A
:1017D0000895CF92DF92EF92FF920F931F93CF93D2
:1017E000DF936C017A018B01C0E0D0E0CE15DF05FC
:1017F00089F0D8016D918D01D601ED91FC91019098
:10180000F081E02DC6011995892B11F47E0102C0EB
:101810002196ECCFC701DF91CF911F910F91FF90DF
:10182000EF90DF90CF9008950F931F93CF93DF93A6
:10183000EC0188819981009729F02A813B81261744
:10184000370788F48B016F5F7F4F0E9468170097FE
:1018500061F0998388831B830A832C813D81232B2C
:1018600011F4FC01108281E001C080E0DF91CF9192
:101870001F910F910895EF92FF920F931F93CF93B3
:10188000DF93FC01248135816115710511F480E03D
:1018900018C041155105A1F07B01EC018A01020F2E
:1018A000131FB801C1DF882391F3288139818C810E
:1018B0009D81B701820F931F0E945A181D830C83CC
:1018C00081E0DF91CF911F910F91FF90EF900895EC
:1018D000CF93DF93EC0188819981009711F00E94EA
:1018E0006E1D198218821D821C821B821A82DF9152
:1018F000CF910895EF92FF920F931F93CF93DF93B1
:10190000EC017B018A01BA018FDF811103C0CE0196
:10191000DFDF07C01D830C83B701888199810E9496
:101920005A18CE01DF91CF911F910F91FF90EF9048
:101930000895CF93DF93EC016115710551F0FB0120
:1019400001900020E9F73197AF01461B570BD2DF1A
:1019500001C0BEDFCE01DF91CF910895FC018081EF
:1019600091810C946E1DEF92FF920F931F93CF9372
:10197000DF93CDB7DEB7A1970FB6F894DEBF0FBEE9
:10198000CDBF7C01CB01BA01F70111821082138215
:1019900012821582148242E0420F8E010F5F1F4FA8
:1019A0000E947E18BC01C701C4DFA1960FB6F8944F
:1019B000DEBF0FBECDBFDF91CF911F910F91FF9082
:1019C000EF9008950F931F93CF93DF93CDB7DEB7BA
:1019D00062970FB6F894DEBF0FBECDBF8C01CB016E
:1019E000F80111821082138212821582148250E053
:1019F000BE016F5F7F4F0E94A618BE016F5F7F4FD1
:101A0000C80197DF62960FB6F894DEBF0FBECDBF58
:101A1000DF91CF911F910F910895FC0111821082E7
:101A200013821282158214826115710549F0FB013F
:101A300001900020E9F73197AF01461B570B5ACFB1
:101A400008956115710579F0FB0101900020E9F717
:101A50003197AF01461B570BDC01ED91FC910280E1
:101A6000F381E02D199480E090E00895CF93DF9307
:101A7000CDB7DEB7E1970FB6F894DEBF0FBECDBF8E
:101A8000789484B5826084BD84B5816084BD85B559
:101A9000826085BD85B5816085BD80916E00816065
:101AA00080936E001092810080918100826080930B
:101AB000810080918100816080938100809180000D
:101AC0008160809380008091B10084608093B10038
:101AD0008091B00081608093B0008091910082601D
:101AE000809391008091910081608093910080911A
:101AF00090008160809390008091A100826080932B
:101B0000A1008091A10081608093A1008091A0003C
:101B100081608093A00080912101826080932101E7
:101B20008091210181608093210180912001816059
:101B30008093200180917A00846080937A00809164
:101B40007A00826080937A0080917A00816080932D
:101B50007A0080917A00806880937A001092C100A8
:101B600010928202109281021092CB021092EC022B
:101B70001092C90281E08093C8021092A30261E032
:101B800084E1EFDB61E085E1ECDB8091B9008E7FE1
:101B90008093B9008091B9008D7F8093B90088E46B
:101BA0008093B80085E48093BC0040E06BE688E653
:101BB0005ED864E670E080E090E050DC41E06BE6E7
:101BC00088E655D868EC70E080E090E047DC43E0C0
:101BD0006AE188E64CD844E069E188E648D86BE1E0
:101BE00088E6A4D8857E9091330408E0909F900108
:101BF0001124482F422B6BE188E639D86CE188E646
:101C000095D8877E9091340418E0919F900111241B
:101C1000482F422B6CE188E62AD86DE188E686D809
:101C2000807F482F43606DE188E621D842E267E378
:101C300088E61DD841E068E388E619D864E670E0DC
:101C400080E090E00BDC40E06AE08CE010D86AE0D5
:101C500070E080E090E002DC4FE06AE08CE007D8C2
:101C60006AE070E080E090E0F9DB9E012F5F3F4F7B
:101C700043E060E18CE017D8698170E06058710939
:101C8000072E000C880B990B0E94A31F20E030E068
:101C900040E85BE30E94DE1F20E030E040E85FE3C5
:101CA0000E9457166093A5047093A6048093A7041E
:101CB0009093A8046A8170E060587109072E000CA7
:101CC000880B990B0E94A31F20E030E040E85BE303
:101CD0000E94DE1F20E030E040E85FE3E8D7609339
:101CE000A9047093AA048093AB049093AC046B8115
:101CF00070E060587109072E000C880B990B0E9448
:101D0000A31F20E030E040E85BE30E94DE1F20E0FC
:101D100030E040E85FE3CBD76093AD047093AE044E
:101D20008093AF049093B00440E06AE08CE00E949E
:101D300037066AE070E080E090E090DB8091350447
:101D400020E1829FC001112440913604482B6AE0B3
:101D50008CE00E9437066AE070E080E090E07EDB75
:101D60008AE893E00E94E0048DEE92E00E94E00495
:101D700060E070E08AEA98E00E94D3188091FF0446
:101D80000E941806809100050E9418061FB7F8945B
:101D900080915902811123C0E1EDF2E08491E7E1E5
:101DA000F3E09491E82FF0E0EE0FFF1FEE57FD4FA8
:101DB000A591B491EC91E92319F461E085E3D1DABE
:101DC00085E30E9418068CB580618CBD8CB580645B
:101DD0008CBD84E30E94180683E30E94180680915C
:101DE00059028F5F809359021FBF60E08091FF040A
:101DF000B8DA81E00E94260365E070E080E090E0C0
:101E00002DDB6FE584E00E94630382E090E00E9496
:101E1000FA05882319F081E08093010580E090E0C5
:101E20000E94FA050E94F40560E787E00E946303C0
:101E30006CE485E00E94630382EE0E941E040E940F
:101E40002A040E94B70480E00E94B003682F6E7FCE
:101E500080E00E94630380E090E00E94FA0586E043
:101E60000E94B003682F676086E00E94630366E407
:101E700085E00E94630380E00E94260380E570DB1A
:101E800083E76EDB81E00E9426038DE10E94B003B0
:101E9000682F64608DE10E9463038CE10E94B003AF
:101EA000682F6F638CE10E94630381E080930305D8
:101EB0006FE084E00E9463030E94F40528EE3EED8B
:101EC0004EED5EED6EED70E080E090E00E947D03EF
:101ED00004EE1EED2EED3EED4EED50E060E070E0C4
:101EE00081E00E94BF030E94C7048FEF0E941E047E
:101EF000282F30E0982F91701F929F93359527954A
:101F0000277033273F932F9384FB992790F91F92D3
:101F10009F9385FB992790F91F929F9386FB9927A2
:101F200090F91F929F931F928F9384E691E09F9365
:101F30008F930E941D1942E06AE08BE592E00E94B7
:101F40004B0544E06CE08EE492E00E94070541E01E
:101F500060E186E492E00E944B0546E061E18BE39C
:101F600092E00E94070541E061E085E392E00E9473
:101F7000070541E062E08BE292E00E94070541E044
:101F800065E085E292E00E94070541E066E08CE1B1
:101F900092E00E94070541E060E085E192E00E9446
:101FA000070542E06CE187E092E00E94070586E0C9
:101FB0000E94B00388720FB6F894DEBF0FBECDBF8B
:101FC000803241F021E090E0883009F020E0E22FFB
:101FD000F92F02C0E2E0F0E0EE0FFF1FEF5FFD4FD0
:101FE000859194919F938F938FEE91E09F938F9320
:101FF0000E941D19E0910105F0E0EE0FFF1FE55171
:10200000FE4F859194919F938F938CED91E09F93D8
:102010008F930E941D1980E00E94B0030FB6F894C0
:10202000DEBF0FBECDBF83FF05C082FD06C0E1E06D
:10203000F0E005C0E0E0F0E002C0E2E0F0E0EE0F2A
:10204000FF1FEA52FE4F859194919F938F9383ECEB
:1020500091E09F938F930E941D1986E00E94B00328
:102060008670E82FF0E0E554FE4F859194919F93A0
:102070008F938AEA91E09F938F930E941D1966E2E5
:1020800072E08AE893E0DDDC89E292E00E94A40439
:1020900064EF71E080E090E0E1D90FB6F894DEBF24
:1020A0000FBECDBF812C912CA12C4AE3B42E87E129
:1020B0000E94B003082F017080FF18C431C081E076
:1020C0000E94260360E787E00E946303F701E65A57
:1020D000FD4F10826AE572E08AE893E0B2DC66E2C6
:1020E00072E08AE893E0ADDC6AE572E0CE018096AA
:1020F00094DC67E372E0CE0101968FDC4D815E8156
:102100008CA19DA18417950708F02EC4CE010196DD
:1021100025DC11113BC410925A02CE0180961EDCC0
:1021200080915802882309F45BC024EE3EED4EED09
:102130005EED6EED70E080E090E00E947D0308EEC1
:102140001EED2EED3EED4EED50E060E070E080E0E3
:102150000E94BF030E942C0419821A821B821C82D7
:10216000FE0135968BE1DF011D928A95E9F74091DA
:10217000FD045091FE04BE016F5F7F4F89EF94E034
:102180000E943C0462E070E080E090E067D9CE01FC
:1021900001960E946504CE0101960E94A40410924B
:1021A000580228EE3EED4EED5EED6EED70E080E003
:1021B00090E00E947D0304EE2EED3EED4EED50E0EA
:1021C00060E070E081E00E94BF030E94C70468E203
:1021D00072E089EF94E0ADDB10927A0210927902FE
:1021E0002FB7F8948091540290915502A091560215
:1021F000B09157022FBF40917D0250917E026091B5
:102200007F02709180028C019D01041B150B260B2F
:10221000370B043611052105310508F464C380939A
:102220007D0290937E02A0937F02B093800268E2C9
:1022300072E083EF94E07DDB80917B0290917C02E1
:10224000009709F0CAC081E090E090937C028093EF
:102250007B029E012F5F3F4F46E06BE388E60E94C2
:102260005306698170E0762F66278A81682B709308
:10227000EE046093ED04EB80F12CFE2CEE248C81B7
:10228000E82AF092F004E092EF040D8110E0102FA4
:1022900000278E81082B1093F2040093F1048091A3
:1022A0003404813099F068F08230E9F0833001F530
:1022B0008092750490927604A0927704B09278048C
:1022C00017C080E090E0A0E8B8E304C080E090E0B0
:1022D000A0E0B9E38093750490937604A09377040B
:1022E000B093780405C080E090E0A0E8B9E3F2CFB5
:1022F0004090750450907604609077047090780454
:10230000072E000C880B990B0E94A31FA3019201BA
:102310000E94DE1F60938104709382048093830483
:1023200090938404B701FF0C880B990B0E94A31FA4
:10233000A30192010E94DE1F6093850470938604BE
:102340008093870490938804B801110F880B990B30
:102350000E94A31FA30192010E94DE1F60938904C3
:1023600070938A0480938B0490938C0420E030E077
:102370004AE754E40E94DE1FAB01BC0122E0CE011B
:102380000196F1DA20E030E04AE754E460918504F8
:102390007091860480918704909188040E94DE1FCA
:1023A000AB01BC0122E0CE018096DDDA20E030E016
:1023B0004AE754E46091810470918204809183041F
:1023C000909184040E94DE1FAB01BC0122E0CE018B
:1023D0008696C9DA6DE372E0C7C18130910509F0D4
:1023E000AFC082E090E090937C0280937B029E01DC
:1023F0002F5F3F4F46E063E488E60E945306698101
:1024000070E0762F66278A81682B70936A04609348
:102410006904EB80F12CFE2CEE248C81E82AF092EA
:102420006C04E0926B040D8110E0102F00278E8168
:10243000082B10936E0400936D0480913304813057
:1024400079F048F0823089F08330D9F480E090E070
:10245000AAE7BDE30EC080E090E0AAEFBBE309C0AD
:1024600080E090E0AAE7BCE304C080E090E0AAEF3F
:10247000BCE38093790490937A04A0937B04B09397
:102480007C044090790450907A0460907B047090B2
:102490007C04072E000C880B990B0E94A31FA3013C
:1024A00092010E94DE1F60938D0470938E048093CE
:1024B0008F0490939004B701FF0C880B990B0E9436
:1024C000A31FA30192010E94DE1F609391047093E9
:1024D00092048093930490939404B801110F880B95
:1024E000990B0E94A31FA30192010E94DE1FAB0162
:1024F000BC014093950450939604609397047093A5
:10250000980422E0CE0101962EDA40919104509178
:102510009204609193047091940422E0CE0180961D
:1025200022DA40918D0450918E0460918F04709155
:10253000900422E0CE01869616DA62E472E014C1BD
:102540008230910509F031C183E090E090937C02E4
:1025500080937B0262E08CE00E94960680FF29C097
:102560009E012F5F3F4F47E063E08CE00E945306DF
:102570008F8183FD1EC08A8190E0982F8827298152
:10258000822B9093700480936F048C8190E0982F3D
:1025900088272B81822B90937204809371048E8103
:1025A00090E0982F88272D81822B9093740480933C
:1025B000730480913504882379F08130C9F48FEF5A
:1025C0009BEEAFEBBFE380937D0490937E04A093DA
:1025D0007F04B09380040CC00FEF1BEE2FEB30E4B0
:1025E00000937D0410937E0420937F043093800435
:1025F00000E010E02BEE33E40093B1041093B2043A
:102600002093B3043093B40480E090E0A0EFB2E4F0
:102610008093B5049093B604A093B704B093B80424
:1026200000E010E02AEF32E40093B9041093BA04FA
:102630002093BB043093BC0440907D0450907E04F2
:1026400060907F047090800460916F0470917004BA
:10265000072E000C880B990B0E94A31FA301920167
:102660000E94DE1F2091A5043091A6044091A7048A
:102670005091A8040E94DE1F20E030E04BEE53E4AE
:1026800015D36093990470939A0480939B0490935C
:102690009C046091710470917204072E000C880BE9
:1026A000990B0E94A31FA30192010E94DE1F20919B
:1026B000A9043091AA044091AB045091AC040E944B
:1026C000DE1F20E030E040EF52E4F0D260939D0442
:1026D00070939E0480939F049093A0046091730470
:1026E00070917404072E000C880B990B0E94A31F95
:1026F000A30192010E94DE1F2091AD043091AE042F
:102700004091AF045091B0040E94DE1F20E030E001
:102710004AEF52E4CBD26093A1047093A204809359
:10272000A3049093A4049FD34AE0CE0101964AD912
:1027300060919D0470919E0480919F049091A004EB
:1027400092D34AE0CE0180963DD960919904709170
:102750009A0480919B0490919C0485D34AE0CE0119
:10276000869630D968E472E0CE018C9656D9BE01C7
:102770006A5D7F4FCE018C960E94D8060E94C806E3
:10278000BE01605E7F4F0E94D8060E94C806BE014F
:102790006F5F7F4F0E94D8060E94B206CE018C96D2
:1027A000DDD8CE018696DAD845C0039709F048C037
:1027B00010927C0210927B029E012F5F3F4F42E0FD
:1027C00061E488E60E945306698170E0762F6627EF
:1027D0008A81682B7093480460934704072E000C8D
:1027E000880B990B0E94A31F2CE53FEE46EA53E4A9
:1027F000C9D220E030E048EA51E459D2AB01BC0133
:1028000040934304509344046093450470934604FA
:1028100022E0CE010196A7D86DE472E0CE01809649
:10282000FCD8BE016F5F7F4FCE0180960E94D80614
:102830000E94B206CE01809691D8CE0101968ED824
:1028400024EE3EED4EED5EED6EED70E080E090E04A
:102850000E947D0308EE1EED2EED3EED4EED50E0A4
:1028600060E070E080E00E94BF030E942C041982A7
:102870001A821B821C82FE0135968BE1DF011D92BC
:102880008A95E9F74091F7045091F804BE016F5F13
:102890007F4F83EF94E00E943C0462E070E080E0B0
:1028A00090E00E942E0ACE0101960E946504CE019E
:1028B00001960E94A4041092580228EE3EED4EEDBF
:1028C0005EED6EED70E080E090E00E947D0304EE2E
:1028D0002EED3EED4EED50E060E070E081E00E94B4
:1028E000BF030E94C7040E94DF08E1CB80E00E9482
:1028F000260380E60E94B00A8FEF0E94B00A182FCC
:1029000081E00E942603113208F4ABC082EE0E94DF
:102910001E04E02EF12C80910205801708F4082F88
:1029200080910305811103C010E2101B01C010E06B
:1029300080E00E94260381E60E94B00A2AE5622E0A
:1029400022E0722E060D061539F08FEF0E94B00AB4
:10295000D3018D933D01F7CF112309F4B0CB8FEF55
:102960000E94B00A1150F8CF88A199A1009709F4EC
:10297000CDCB69817A816115710509F4C7CBA1D3EB
:1029800011E0892B09F4C2CB10E0C0CB0CA11DA132
:102990000630110520F4780106E010E003C096E04F
:1029A000E92EF12C68E272E0CE01019636D88CA1B6
:1029B0009DA1E816F906C0F48017910708F48C0170
:1029C000E8A1F9A1E00FF11F7080108268A179A140
:1029D0006E0D7F1DCE0101960E94990C88A199A1D0
:1029E000FC01E00FF11F708288A199A10097A1F06E
:1029F00069817A816115710569F04AA15BA12D8118
:102A00003E814217530730F055D38D819E819DA39F
:102A10008CA312C00E946E1D89819A8199A388A3FC
:102A20008B819C819BA38AA38D819E819DA38CA376
:102A30001A8219821C821B821E821D82CE0101967F
:102A40000E94AE0C4CA15DA168A179A18DEE92E02F
:102A50000E94E90B66E272E08DEE92E00E94210D89
:102A60005ACB012F56CFEDEEF2E01382128288EEA0
:102A700093E0A0E0B0E084839583A683B7832AE047
:102A800032E0318320834DEC50E0558744874CEC95
:102A900050E05787468748EC50E0518B408B49EC1B
:102AA00050E0538B428B4AEC50E0558B448B4EECFC
:102AB00050E0578B468B118E128E138E148EEAE8DF
:102AC000F3E01382128284839583A683B7833183D4
:102AD000208325EC30E03587248724EC30E03787ED
:102AE000268720EC30E0318B208B21EC30E0338BDB
:102AF000228B22EC30E0358B248B26EC30E0378BB8
:102B0000268B118E128E138E148E4EE057EC6AE1D6
:102B10007FE340930F055093100560931105709368
:102B2000120510920B0510920C0510920D051092D3
:102B30000E05E7E2F4E01382128284839583A68374
:102B4000B7838AE192E091838083EFEFF4E081E341
:102B5000808385E38183128280E28383148285E00F
:102B6000828768E272E089EF94E00E940D0D68E2CE
:102B700072E083EF94E00E940D0DE3E3F4E0108235
:102B8000118281E0828382E08383168A178A108E05
:102B9000118E128E138E148E158E168E178E10A215
:102BA00011A212A213A214A215A216A217A210A675
:102BB00011A612A613A614A615A616A617A610AA45
:102BC00011AA12AA13AA14AA15AA1092A504109267
:102BD000A6041092A7041092A8041092A9041092BF
:102BE000AA041092AB041092AC041092AD0410929F
:102BF000AE041092AF041092B0041092B10410927F
:102C0000B2041092B3041092B4041092B50410925E
:102C1000B6041092B7041092B8041092B90410923E
:102C2000BA041092BB041092BC041092BD0410921E
:102C3000BE041092BF041092C0041092C1041092FE
:102C4000C2041092C3041092C4041092C5041092DE
:102C5000C6041092C7041092C8041092C9041092BE
:102C6000CA041092CB041092CC041092CD0410929E
:102C7000CE041092CF041092D0041092D10410927E
:102C8000D2041092D3041092D404089583EF94E0F8
:102C90000E94AE0C89EF94E00C94AE0CEE0FFF1F77
:102CA000881F8BBF0790F691E02D19945058BB27D1
:102CB000AA2713D00C9458200E944A2038F00E9472
:102CC000512020F039F49F3F19F426F40C9447204A
:102CD0000EF4E095E7FB0C944120E92F0E94692057
:102CE00058F3BA17620773078407950720F079F441
:102CF000A6F50C948B200EF4E0950B2EBA2FA02D88
:102D00000B01B90190010C01CA01A0011124FF2798
:102D1000591B99F0593F50F4503E68F11A16F04093
:102D2000A22F232F342F4427585FF3CF4695379592
:102D30002795A795F0405395C9F77EF41F16BA0B57
:102D4000620B730B840BBAF09150A1F0FF0FBB1F05
:102D5000661F771F881FC2F70EC0BA0F621F731F4E
:102D6000841F48F4879577956795B795F7959E3FAB
:102D700008F0B0CF9395880F08F09927EE0F97953C
:102D80008795089512D00C9458200E94512058F035
:102D90000E944A2040F029F45F3F29F00C94412022
:102DA00051110C948C200C9447200E94692068F3E8
:102DB0009923B1F3552391F3951B550BBB27AA27F4
:102DC00062177307840738F09F5F5F4F220F331F2E
:102DD000441FAA1FA9F335D00E2E3AF0E0E832D0F6
:102DE00091505040E695001CCAF72BD0FE2F29D0F9
:102DF000660F771F881FBB1F261737074807AB07CB
:102E0000B0E809F0BB0B802DBF01FF2793585F4F3F
:102E10003AF09E3F510578F00C9441200C948C20A0
:102E20005F3FE4F3983ED4F3869577956795B79521
:102E3000F7959F5FC9F7880F911D9695879597F92C
:102E40000895E1E0660F771F881FBB1F62177307A5
:102E50008407BA0720F0621B730B840BBA0BEE1FBA
:102E600088F7E095089505D06894B1110C948C20F2
:102E700008950E94712088F09F5798F0B92F9927E4
:102E8000B751B0F0E1F0660F771F881F991F1AF055
:102E9000BA95C9F714C0B13091F00E948B20B1E00F
:102EA00008950C948B20672F782F8827B85F39F00E
:102EB000B93FCCF3869577956795B395D9F73EF4EE
:102EC00090958095709561957F4F8F4F9F4F089596
:102ED0006F927F928F929F92AF92BF92CF92DF922A
:102EE000EF92FF920F931F93CF93DF93EC01009724
:102EF00081F4CB01DF91CF911F910F91FF90EF9063
:102F0000DF90CF90BF90AF909F908F907F906F9009
:102F100050C5FC01E60FF71F9C0122503109E21752
:102F2000F30708F4A8C0D9010D911C911197061759
:102F30001707A8F00530110508F49BC0C8010497D5
:102F40008617970708F495C002501109061B170B46
:102F5000019311936D937C93CF01C0D58AC05B011F
:102F6000A01AB10A4C01800E911EA0916705B09184
:102F7000680540E050E0E12CF12C109709F44AC0BC
:102F8000A815B905D1F56D907C901197630182E089
:102F9000C80ED11CCA14DB0480F1A3014A195B09D5
:102FA0006A0182E0C80ED11C1296BC90129713964B
:102FB000AC91B5E0CB16D10440F0B282A38351832B
:102FC0004083D9016D937C930AC00E5F1F4FC301EC
:102FD000800F911FF90191838083EB2DFA2FE1146B
:102FE000F10431F0D7011396FC93EE93129741C090
:102FF000F0936805E09367053CC08D919C91119713
:103000004817590708F4AC017D0112960D90BC9148
:10301000A02DB3CF8091650590916605881599051F
:10302000E1F446175707C8F480910002909101021D
:10303000009741F48DB79EB740910402509105026C
:10304000841B950BE817F907B0F4F0936605E0933D
:103050006505F901718360830CC0CB01AAD47C01A2
:10306000009749F0A801BE011CD0CE0137D5C70199
:1030700004C0CE0102C080E090E0DF91CF911F91AB
:103080000F91FF90EF90DF90CF90BF90AF909F9007
:103090008F907F906F90089581E090E0F8940C9469
:1030A0009220FB01DC0102C001900D924150504082
:1030B000D8F70895FB01DC0101900D920020E1F7A3
:1030C0000895FB01DC014150504030F08D9101909A
:1030D000801919F40020B9F7881B990B0895FB019A
:1030E000DC014150504048F001900D920020C9F79A
:1030F00001C01D9241505040E0F70895EF920F93A8
:103100001F93CF93DF93E80147FD02C034E001C075
:1031100034E1E42F440FFF0BF7FF03C0F195E19575
:10312000F109E32E022F2E2FAE01B6D2CE01DF9190
:10313000CF911F910F91EF900895FC010590002011
:10314000E9F7809590958E0F9F1F089545325105A0
:1031500018F4423008F004C0FB011082CB0108953E
:10316000BB274A3031F4992322F4BDE29095819532
:103170009F4F01C0BB27FB015527AA27880F991F26
:10318000AA1FA41710F0A41B83955051B9F7A05D96
:10319000AA3308F0A95DA193009779F7B111B19313
:1031A0001192CB0128C60F931F93CF93DF93009703
:1031B00031F46115710519F480E090E039C08B019C
:1031C000EC016EE070E081E090E04CD2FC01892BD4
:1031D00099F380E883830115110571F01387028745
:1031E00081E8838380915F0590916005892B21F4AC
:1031F000F0936005E0935F052097C9F0D187C08701
:103200008381826083838091610590916205892B1F
:1032100071F4F0936205E0936105809163059091EC
:103220006405892B21F4F0936405E0936305CF01D5
:10323000DF91CF911F910F9108950F931F93CF931B
:10324000DF93CDB7DEB7AE01485F5F4FDA016D9116
:103250007D91AD010FE515E0F80182819381DC01DC
:1032600013962C911397286013962C930DD0D801A8
:103270001296ED91FC9113972381277F2383DF9191
:10328000CF911F910F9108952F923F924F925F928D
:103290006F927F928F929F92AF92BF92CF92DF9266
:1032A000EF92FF920F931F93CF93DF93CDB7DEB7CB
:1032B0002C970FB6F894DEBF0FBECDBF7C016B011B
:1032C0008A01FC0117821682838181FFB0C1CE0181
:1032D00001964C01F7019381F60193FD859193FFCF
:1032E00081916F01882309F49EC1853239F493FDE1
:1032F000859193FF81916F01853221F4B70190E0B0
:103300008AD5E8CF512C312C20E02032A0F48B322A
:1033100069F030F4803259F0833269F420612CC0B6
:103320008D3239F0803339F4216026C02260246068
:1033300023C0286021C027FD27C030ED380F3A3068
:1033400078F426FF06C0FAE05F9E300D1124532E5C
:1033500013C08AE0389E300D1124332E20620CC039
:103360008E3221F426FD5FC1206406C08C3611F434
:10337000206802C0883641F4F60193FD859193FFE1
:1033800081916F018111C1CF982F9F7D955493300A
:1033900028F40C5F1F4FFFE3F9830DC0833631F033
:1033A000833771F0833509F057C021C0F80180815F
:1033B00089830E5F1F4F44244394512C540114C041
:1033C0003801F2E06F0E711CF801A080B18026FF79
:1033D00003C0652D70E002C06FEF7FEFC5012C8741
:1033E000FFD42C0183012C852F77222E16C03801A3
:1033F000F2E06F0E711CF801A080B18026FF03C0BF
:10340000652D70E002C06FEF7FEFC5012C87D6D429
:103410002C012C852068222E830123FC19C0832DCA
:1034200090E048165906A0F4B70180E290E0F3D48A
:103430003A94F5CFF50127FC859127FE81915F0134
:10344000B70190E0E8D431103A94F1E04F1A5108F6
:103450004114510479F7DEC0843611F0893631F514
:10346000F80127FF07C060817181828193810C5F21
:103470001F4F08C060817181072E000C880B990BCB
:103480000E5F1F4F2F76722E97FF09C09095809583
:10349000709561957F4F8F4F9F4F2068722E2AE065
:1034A00030E0A401F0D4A82EA81843C0853729F431
:1034B0002F7EB22E2AE030E025C0F22FF97FBF2EFA
:1034C0008F36C1F018F4883579F0ADC0803719F027
:1034D000883721F0A8C02F2F2061B22EB4FE0DC076
:1034E0008B2D8460B82E09C024FF0AC09F2F9660E0
:1034F000B92E06C028E030E005C020E130E002C06F
:1035000020E132E0F801B7FE07C06081718182815D
:1035100093810C5F1F4F06C06081718180E090E055
:103520000E5F1F4FA401AFD4A82EA818FB2DFF7764
:103530007F2E76FE0BC0372D3E7FA51450F474FE0F
:103540000AC072FC08C0372D3E7E05C0BA2C372D4C
:1035500003C0BA2C01C0B52C34FF0DC0FE01EA0D2A
:10356000F11D8081803311F4397E09C032FF06C01D
:10357000B394B39404C0832F867809F0B39433FDD9
:1035800012C030FF06C05A2CB31418F4530C5B1849
:10359000B32CB31460F4B70180E290E03C873BD4D5
:1035A000B3943C85F6CFB31410F43B1801C0312C12
:1035B00034FF11C0B70180E390E03C872CD43C85F8
:1035C00032FF16C031FD03C088E790E002C088E5F5
:1035D00090E0B7010CC0832F867851F031FF02C014
:1035E0008BE201C080E237FD8DE2B70190E013D499
:1035F000A51430F4B70180E390E00DD45A94F8CFCD
:10360000AA94F401EA0DF11D8081B70190E003D482
:10361000A110F6CF332009F45DCEB70180E290E02F
:10362000FAD33A94F7CFF7018681978102C08FEFE2
:103630009FEF2C960FB6F894DEBF0FBECDBFDF9183
:10364000CF911F910F91FF90EF90DF90CF90BF909F
:10365000AF909F908F907F906F905F904F903F9032
:103660002F9008950F931F93CF93DF93869F800130
:10367000879F100D969F100D1124C8019AD1EC015F
:10368000009721F0A80160E070E0A3D3CE01DF91A4
:10369000CF911F910F9108954F925F926F927F92F9
:1036A0009F92AF92BF92CF92DF92EF92FF920F93D1
:1036B0001F93CF93DF93CDB7DEB729970FB6F8945A
:1036C000DEBF0FBECDBF6A01122FB02E2BE3201735
:1036D00020F0FF24F394F00E02C0BCE3FB2E0F2D6C
:1036E00027E0AE014F5F5F4F91D2AC018981982FE7
:1036F0009970913031F0E1FC06C0E0FE06C090E226
:1037000005C09DE203C09BE201C090E0EE2DE07198
:1037100083FF3CC0911102C083E001C084E08117A7
:1037200018F4212F281B01C020E0E1110BC0F60185
:10373000822F30E2882319F031938150FBCFC20EE3
:10374000D11C20E0992329F0D6019C93F6013196F3
:103750006F01C6010396E2FE0AC03EE4D6013C9327
:1037600041E411964C93119712963C9306C03EE6A5
:10377000F601308341E641833283FC01322F40E27F
:10378000332309F442C041933150FACF82FF44C041
:10379000911102C083E001C084E0811718F4212F49
:1037A000281B01C020E0E1110BC0F601822F30E29E
:1037B000882319F031938150FBCFC20ED11C20E039
:1037C000992329F0D6019C93F60131966F01C60129
:1037D0000396E2FE0BC039E4D6013C933EE4119619
:1037E0003C93119736E412963C9307C039E6F601F4
:1037F00030833EE6318336E63283FC01322F40E2ED
:10380000332319F041933150FBCFFC01E20FF11D3E
:1038100010828EEF9FEFB7C0F1E0911101C0F0E090
:103820006F2F70E01416150624F49A012F5F3F4F96
:1038300002C021E030E0260F371FBB2029F06B2D9E
:1038400070E06F5F7F4F02C060E070E0260F371FAF
:10385000612F70E0261737071CF4121B212F01C0BF
:1038600020E03E2D387159F4D601322F60E2332327
:1038700019F06D933150FBCFC20ED11C20E0FF2315
:1038800031F0D6019C93B6016F5F7F4F6B01E11160
:103890000BC0F601922F30E3992319F03193915028
:1038A000FBCFC20ED11C20E09F2D940F3A81782FC0
:1038B0007071A72E84FF03C0313309F4915019169B
:1038C00024F4993018F098E001C091E0E42F852F9E
:1038D00057FF02C0E0E080E06E2F782FE0E0F0E0DC
:1038E000AEE29A2E3A01691A71082A01461A570A5D
:1038F0000B2D10E01195019511096F3F8FEF78079F
:1039000029F4D6019C92C60101966C01461757070F
:1039100084F0661677066CF47F01E40CF51CA1E0D8
:10392000B0E0AC0FBD1FEA0EFB1ED7011196BC9094
:1039300002C090E3B92E615071093196C60101961B
:103940007C016017710724F0D601BC926C01D5CFC1
:103950006417750741F4363320F4353321F4A11090
:1039600002C081E3B82EF601B082F701822F90E207
:10397000882319F091938150FBCFF701E20FF11DDD
:10398000108280E090E029960FB6F894DEBF0FBE5B
:10399000CDBFDF91CF911F910F91FF90EF90DF90FE
:1039A000CF90BF90AF909F907F906F905F904F901F
:1039B0000895CF93DF938230910510F482E090E078
:1039C000E0916705F091680520E030E0C0E0D0E0CC
:1039D000309711F14081518148175907C0F04817BD
:1039E000590761F482819381209719F09B838A8320
:1039F0002BC0909368058093670526C0211531057B
:103A000019F04217530718F49A01BE01DF01EF01C4
:103A10000280F381E02DDCCF2115310509F1281B4F
:103A2000390B2430310590F412968D919C911397A7
:103A30006115710521F0FB019383828304C090938B
:103A4000680580936705FD01329644C0FD01E20FD1
:103A5000F31F81939193225031092D933C933AC0E7
:103A60002091650530916605232B41F420910202D7
:103A70003091030230936605209365052091000282
:103A8000309101022115310541F42DB73EB7409127
:103A9000040250910502241B350BE0916505F0915D
:103AA0006605E217F307A0F42E1B3F0B2817390712
:103AB00078F0AC014E5F5F4F2417350748F04E0F8A
:103AC0005F1F50936605409365058193919302C0F3
:103AD000E0E0F0E0CF01DF91CF9108950F931F93C5
:103AE000CF93DF93009709F48CC0FC0132971382C7
:103AF000128200916705109168050115110581F486
:103B000020813181820F931F2091650530916605D8
:103B10002817390779F5F0936605E093650571C0BC
:103B2000D80140E050E0AE17BF0750F412962D9137
:103B30003C911397AD012115310509F1D901F3CF5E
:103B40009D01DA013383228360817181860F971F83
:103B50008217930769F4EC0128813981260F371FFA
:103B60002E5F3F4F318320838A819B8193838283A1
:103B7000452B29F4F0936805E093670542C013963E
:103B8000FC93EE931297ED01499159919E01240FF8
:103B9000351FE217F30771F480819181840F951F1F
:103BA000029611969C938E938281938113969C9397
:103BB0008E931297E0E0F0E0D80112968D919C91DF
:103BC0001397009719F0F8018C01F6CF8D919C9115
:103BD00098012E5F3F4F820F931F20916505309112
:103BE00066052817390769F4309729F4109268059B
:103BF0001092670502C0138212821093660500932B
:103C00006505DF91CF911F910F910895283008F03D
:103C100027E03327DA01990F311D87FD9160009667
:103C20006105710539F432602E5F3D9330E32A95CA
:103C3000E1F708959F3F30F080387105610509F084
:103C40003C5F3C5F3D93913008F08068911DDF93AD
:103C5000CF931F930F93FF92EF92192F987F969512
:103C6000E92F96959695E90FFF27EF5FFB4F992770
:103C70003327EE24FF24A701E70105900894079459
:103C800028F4360FE71EF81E491F511D660F771FD7
:103C9000881F991F0694A1F70590079428F4E70E52
:103CA000F81E491F561FC11D770F881F991F661FD9
:103CB0000694A1F70590079428F4F80E491F561FA3
:103CC000C71FD11D880F991F661F771F0694A1F784
:103CD0000590079420F4490F561FC71FD81F990F4E
:103CE000661F771F881F0694A9F784911095177097
:103CF00041F0D695C79557954795F794E7941A954F
:103D0000C1F7E7EAF3E06894159015913591659154
:103D1000959105907FE27395E118F10A430B560BDC
:103D2000C90BD009C0F7E10CF11E431F561FC91F74
:103D3000D01D7EF4703311F48A95E6CFE8940150DB
:103D400030F0080F0AF40027021708F4202F2395FB
:103D5000022F7A3328F079E37D932A95E9F710C092
:103D60007D932A9589F606949795679537951795CB
:103D70001794E118F10A430B560BC90BD00998F0C0
:103D800023957E9173957A3308F070E37C9320132A
:103D9000B8F77E9170617D9330F0839571E37D93E8
:103DA00070E32A95E1F71124EF90FF900F911F9196
:103DB000CF91DF91992787FD90950895FC0105909B
:103DC000615070400110D8F7809590958E0F9F1F1D
:103DD0000895DC0101C06D9341505040E0F7089513
:103DE000FC016150704001900110D8F780959095CA
:103DF0008E0F9F1F0895DC01FC01672F71917723BF
:103E0000E1F7329704C07C916D9370836291AE1795
:103E1000BF07C8F308950F931F93CF93DF93FB0160
:103E2000238121FD03C08FEF9FEF28C022FF16C022
:103E300046815781248135814217530744F4A0817C
:103E4000B1819D012F5F3F4F318320838C93268169
:103E500037812F5F3F4F3783268310C0EB01092F37
:103E6000182F0084F185E02D1995892BE1F68E81BC
:103E70009F8101969F838E83812F902FDF91CF9119
:103E80001F910F910895FA01AA27283051F120318E
:103E900081F1E8946F936E7F6E5F7F4F8F4F9F4FDE
:103EA000AF4FB1E03ED0B4E03CD0670F781F891F20
:103EB0009A1FA11D680F791F8A1F911DA11D6A0FEE
:103EC000711D811D911DA11D20D009F468943F91A1
:103ED0002AE0269F11243019305D3193DEF6CF01A0
:103EE0000895462F4770405D4193B3E00FD0C9F766
:103EF000F6CF462F4F70405D4A3318F0495D31FDD3
:103F00004052419302D0A9F7EACFB4E0A695979525
:103F1000879577956795BA95C9F7009761057105FB
:103F200008959B01AC010A2E069457954795379545
:103F30002795BA95C9F7620F731F841F951FA01D9F
:103F40000895E89409C097FB3EF49095809570958C
:103F500061957F4F8F4F9F4F9923A9F0F92F96E9D5
:103F6000BB279395F695879577956795B795F1114A
:103F7000F8CFFAF4BB0F11F460FF1BC06F5F7F4FE7
:103F80008F4F9F4F16C0882311F096E911C07723F9
:103F900021F09EE8872F762F05C0662371F096E802
:103FA000862F70E060E02AF09A95660F771F881FD1
:103FB000DAF7880F9695879597F908950BD078C012
:103FC00069D028F06ED018F0952309F05AC05FC070
:103FD0001124A2C07ED0A0F3959FD1F3950F50E09D
:103FE000551F629FF001729FBB27F00DB11D639FAB
:103FF000AA27F00DB11DAA1F649F6627B00DA11D51
:10400000661F829F2227B00DA11D621F739FB00DF6
:10401000A11D621F839FA00D611D221F749F332766
:10402000A00D611D231F849F600D211D822F762FFF
:104030006A2F11249F5750408AF0E1F088234AF0FC
:10404000EE0FFF1FBB1F661F771F881F9150504048
:10405000A9F79E3F510570F014C05EC05F3FECF3BE
:10406000983EDCF3869577956795B795F795E79534
:104070009F5FC1F7FE2B880F911D9695879597F945
:10408000089597F99F6780E870E060E008959FEFDA
:1040900080EC089500240A941616170618060906DF
:1040A000089500240A9412161306140605060895AE
:1040B000092E0394000C11F4882352F0BB0F40F436
:1040C000BF2B11F460FF04C06F5F7F4F8F4F9F4F76
:1040D000089557FD9058440F551F59F05F3F71F0F8
:1040E0004795880F97FB991F61F09F3F79F087955F
:1040F0000895121613061406551FF2CF4695F1DFE8
:1041000008C0161617061806991FF1CF8695710577
:10411000610508940895E894BB2766277727CB01AB
:1041200097F9089512E0C2E5D2E000E006C0802FC2
:10413000FE010E944E162196011DC335D10780E075
:084140000807A9F7F894FFCF6E
:10414800000069058000000000006307E90B2407F0
:1041580002071607A907000000007C084D0845085B
:104168003108220821080D0A00524620436861746C
:10417800205630312E30004D4F544F52006163634A
:104188002C006779726F2C006D61672C0074656D67
:04419800702C000087
:00000001FF
